:10000000000100208D0D0000F90D0000010E000020
:10001000090E0000090E0000090E0000000000009B
:10002000000000000000000000000000090E0000B9
:10003000090E000000000000090E0000090E00007B
:10004000090E0000090E0000090E0000090E000054
:10005000090E0000090E0000090E0000090E000044
:10006000090E0000090E0000090E0000090E000034
:10007000090E0000090E0000090E0000090E000024
:10008000090E0000090E0000090E0000090E000014
:10009000090E0000090E0000090E0000090E000004
:1000A000090E0000090E0000090E0000090E0000F4
:1000B000090E0000090E0000090E0000090E0000E4
:1000C000090E0000090E0000090E0000090E0000D4
:1000D000090E0000090E0000090E0000090E0000C4
:1000E000090E00000000000000000000090E0000E2
:1000F000090E0000090E0000090E0000090E0000A4
:10010000090E0000090E0000090E0000090E000093
:100110000000000000000000090E0000090E0000B1
:10012000090E0000090E0000090E0000090E000073
:10013000090E0000090E0000090E0000090E000063
:1001400000000000000000000000000000000000AF
:10015000090E0000090E0000090E0000090E000043
:10016000000000000000000000000000000000008F
:10017000000000000000000000000000000000007F
:10018000000000000000000000000000000000006F
:10019000000000000000000000000000000000005F
:1001A000000000000000000000000000000000004F
:1001B000090E0000090E0000090E0000090E0000E3
:1001C000090E0000090E0000090E0000090E0000D3
:1001D000090E0000090E0000090E0000090E0000C3
:1001E000090E0000090E0000090E000000000000CA
:1001F00000000000090E0000090E0000090E0000BA
:10020000090E0000090E00000000000000000000C0
:10021000090E0000090E0000090E0000090E000082
:10022000090E0000090E0000090E0000090E000072
:10023000090E0000090E0000090E0000090E000062
:10024000090E0000090E0000090E0000090E000052
:10025000090E0000090E0000090E0000090E000042
:10026000090E0000090E0000090E000080B59EB0C6
:1002700000AF00F02FFC00F0B9FC012000F00AFDF7
:10028000802000F007FD4FF4FA7000F041FD0120DE
:1002900000F03EFDB94A3B461068516803C312891D
:1002A0001A8000237B6700233B670023FB66002343
:1002B000BB6600237B66202387F863300023FB6541
:1002C0000023BB6500237B650023FB64012000F055
:1002D0001FFDAB4B1B6803F00103BB64A84B1B68FD
:1002E00003F002037B64A64B1B6803F004033B642A
:1002F000A34B1B6803F00803FB63A14B1B6803F0CF
:100300001003BB630A2000F003FD0C21012000F064
:1003100037FC3A467B6F134493F90030DBB2184642
:1003200000F0DAFC012000F0F3FC3A463B6F134486
:1003300093F90030DBB2184600F0CEFC012000F04B
:10034000E7FC97F86330184600F0C6FC012000F087
:10035000DFFC3A46BB6E134493F90030DBB218461B
:1003600000F0BAFC012000F0D3FC3A467B6E134447
:1003700093F90030DBB2184600F0AEFCBB6C002BEA
:1003800017D07B6F01337B677A6F7E4B83FB021341
:100390009910D317C91A0B469B000B445B00D31A64
:1003A0007B670123FB650023BB65282000F0B0FCC0
:1003B00085E07B6C002B17D03B6F01333B673A6FB6
:1003C000704B83FB02139910D317C91A0B469B007D
:1003D0000B445B00D31A3B670123FB650023BB651D
:1003E000282000F095FC6AE03B6C002B25D0FB6ECA
:1003F000002B08D10123FB662E2387F863302820C9
:1004000000F086FC5BE07B6D01337B65282000F00B
:100410007FFC7B6D0A2B52DD0121022000F0B0FB36
:10042000594800F095FB4FF47A7000F071FC00F031
:1004300073FB202387F8633029E7FB6B002B17D071
:10044000BB6E0133BB66BA6E4E4B83FB0213991031
:10045000D317C91A0B469B000B445B00D31ABB662B
:100460000123FB650023BB65282000F051FC26E03A
:10047000BB6B002B17D07B6E01337B667A6E414BD2
:1004800083FB02139910D317C91A0B469B000B4428
:100490005B00D31A7B660123FB650023BB65282024
:1004A00000F036FC0BE0FB6D012B08D1BB6D013376
:1004B000BB650A2000F02CFCBB6D642B03DC0A201A
:1004C00000F026FC02E700BF7A6F13469B0013443E
:1004D0005B001A463B6F13447B63BA6E13469B0066
:1004E00013445B001A467B6E13443B637B6B254AC7
:1004F00082FB0312D210DB17D31AFB627A6B214BFB
:1005000083FB0213D910D317C91A0B469B000B4467
:100510009B00D31A7B63FB6A002B78DD7B6B092B76
:1005200034DD7A6B174B83FB02139910D317C91A6A
:100530000B469B000B445B00D31A3B657B6B114A57
:1005400082FB03129210DB17D31ABB620C2101202D
:1005500000F016FB3A46BB6A134493F90030DBB255
:10056000184600F0B9FB3A463B6D134493F900304E
:10057000DBB2184600F0B0FB1AE000BF700E0000BE
:10058000FC43024067666666100E00007B6B3B65AD
:100590000C21012000F0F4FA202000F09DFB3A46E7
:1005A0003B6D134493F90030DBB2184600F094FB26
:1005B000012000F0ADFB2E2000F08EFB3A46BB6E12
:1005C000134493F90030DBB2184600F085FB3A463D
:1005D0007B6E134493F90030DBB2184600F07CFBCD
:1005E000012000F095FB0121022000F0C9FA3A46F3
:1005F000FB6A134493F90030DBB2184600F06CFB41
:10060000A34800F0A5FA40F6C41000F081FB00F00A
:1006100083FA012000F07CFB7B6B9E4A82FB031275
:100620009210DB17D31A7B627A6B9A4B83FB02130F
:100630009910D317C91A0B469B000B445B00D31AC1
:100640007B637B6A002B40DD7B6B3B650C210120CB
:1006500000F096FA202000F03FFB3A463B6D134431
:1006600093F90030DBB2184600F036FB012000F0B1
:100670004FFB2E2000F030FB3A46BB6E134493F93B
:100680000030DBB2184600F027FB3A467B6E13447D
:1006900093F90030DBB2184600F01EFB012000F099
:1006A00037FB0121022000F06BFA3A467B6A1344C3
:1006B00093F90030DBB2184600F00EFB764800F0EC
:1006C00047FA40F6C41000F023FB00F025FA7B6BDC
:1006D000704A82FB03125210DB17D31A3B627A6B0B
:1006E0006C4B83FB02135910D317C91A0B469B009E
:1006F0000B44D31A7B633B6A002B3EDD0C210120A7
:1007000000F03EFA202000F0E7FA3A467B6B1344F3
:1007100093F90030DBB2184600F0DEFA012000F059
:10072000F7FA2E2000F0D8FA3A46BB6E134493F93C
:100730000030DBB2184600F0CFFA3A467B6E134425
:1007400093F90030DBB2184600F0C6FA012000F041
:10075000DFFA0121022000F013FA3A467B6A1344C3
:1007600093F90030DBB2184600F0B6FA4B4800F0BF
:10077000EFF940F6C41000F0CBFA00F0CDF97B6B36
:10078000FB6100237B63FB69002B35DD0C2101201D
:1007900000F0F6F9202000F09FFA202000F09CFAEB
:1007A0002E2000F099FA3A46BB6E134493F90030BC
:1007B000DBB2184600F090FA3A467B6E134493F988
:1007C0000030DBB2184600F087FA012000F0A0FAF2
:1007D0000121022000F0D4F93A46FB69134493F951
:1007E0000030DBB2184600F077FA2D4800F0B0F97F
:1007F00040F6C41000F08CFA00F08EF93B6B294AE9
:1008000082FB03121211DB17D31ABB613B6B254A23
:1008100082FB03121111DA178A1A322101FB02F24C
:100820009B1A3B63BB69002B65DD3B6B092B3BDDF2
:100830003A6B184B83FB02139910D317C91A0B4656
:100840009B000B445B00D31A3B653B6B114A82FB58
:1008500003129210DB17D31ABB620E21012000F0A5
:100860008FF92E2000F038FA3A46BB6A134493F908
:100870000030DBB2184600F02FFA3A463B6D1344C5
:1008800093F90030DBB2184600F026FA1FE000BFF3
:100890001C0E000067666666280E0000300E000021
:1008A000380E00001F85EB510E21012000F068F981
:1008B0002E2000F011FA202000F00EFA3A463B6D8F
:1008C000134493F90030DBB2184600F005FA012119
:1008D000022000F055F93A46BB69134493F9003001
:1008E000DBB2184600F0F8F9744800F031F940F630
:1008F000C41000F00DFA00F00FF93B6B704A82FB58
:100900000312D210DB17D31A7B613A6B6C4B83FB5B
:100910000213D910D317C91A0B469B000B44990038
:100920000B44D31A3B637B69002B58DD3B6B092BCF
:100930002EDD3A6B634B83FB02139910D317C91A50
:100940000B469B000B445B00D31A3B653B6B5D4A37
:1009500082FB03129210DB17D31ABB620E21012017
:1009600000F00EF92E2000F0B7F93A46BB6A1344A6
:1009700093F90030DBB2184600F0AEF93A463B6D11
:10098000134493F90030DBB2184600F0A5F912E0E9
:100990000E21012000F0F4F82E2000F09DF9202017
:1009A00000F09AF93A463B6D134493F90030DBB2FC
:1009B000184600F091F90121022000F0E1F83A46D2
:1009C0007B69134493F90030DBB2184600F084F9D8
:1009D0003D4800F0BDF840F6C41000F099F900F071
:1009E0009BF83B6B374A82FB03129210DB17D31A3A
:1009F0003B613A6B334B83FB02139910D317C91A2F
:100A00000B469B000B445B00D31A3B633B69002BF6
:100A10004BDD0E21012000F0B3F82E2000F05CF930
:100A2000302000F059F93A463B6B134493F90030FB
:100A3000DBB2184600F050F90121022000F0A0F8C6
:100A40003A463B69134493F90030DBB2184600F094
:100A500043F91E4800F07CF840F6C41000F058F945
:100A600000F05AF83B6BFB600E21012000F088F883
:100A70002E2000F031F9202000F02EF9202000F087
:100A80002BF90121022000F07BF83A46FB68134461
:100A900093F90030DBB2184600F01EF90C4800F064
:100AA00057F840F6C41000F033F9642000F030F934
:100AB00000F032F800F03EF8FFF7E9BB400E00000E
:100AC0001F85EB51676666664C0E0000580E0000ED
:100AD000640E000080B483B000AF0C4A0B4B1B685F
:100AE00043F010031360094B1B687B60084A084BF6
:100AF0001B681360074A074B1B6843F0FF03136032
:100B000000BF0C37BD465DF8047B704708E10F401D
:100B1000004402401C45024080B500AF0121022084
:100B200000F02EF8024800F013F800BF80BD00BFAF
:100B30007C0E000080B500AF0121012000F020F8FC
:100B4000024800F005F800BF80BD00BF7C0E000029
:100B500080B582B000AF786008E07B685A1C7A608C
:100B600093F90030DBB2184600F0B6F87B6893F9D1
:100B70000030002BF1D100BF0837BD4680BD00BF5B
:100B800080B582B000AF03460A46FB711346BB71C5
:100B900097F90730012B11D197F906305A1E124BE5
:100BA0001340002B03DA013B63F00F030133DBB288
:100BB000803BDBB2184600F06DF810E097F9063084
:100BC0005A1E094B1340002B03DA013B63F00F035D
:100BD0000133DBB2403BDBB2184600F05BF800BFEC
:100BE0000837BD4680BD00BF0F00008080B500AF54
:100BF0000F4A0F4B1B6843F0020313600D4A0D4B65
:100C00001B6843F0FF0313600B4A0B4B1B6843F058
:100C1000FF031360282000F03DF8062000F03AF8AA
:100C2000012000F037F80F2000F034F800BF80BD3D
:100C300008E10F40005400401C55004080B582B0D0
:100C400000AF03460A46FB711346BB71FB7923F0E4
:100C50000F03FB71BB7903F00F03BB710C49FA79E9
:100C6000BB791343DBB20B600949FA79BB791343B3
:100C7000DBB243F00403DBB20B60002000F068F845
:100C8000034AFB79136000BF0837BD4680BD00BF33
:100C9000FC53004080B582B000AF0346FB71FB7986
:100CA00023F00F03DBB200211846FFF7C7FFFB79E3
:100CB0001B01DBB200211846FFF7C0FFFB79032BB5
:100CC00003D8022000F024F802E0282000F040F8C9
:100CD00000BF0837BD4680BD80B582B000AF034677
:100CE000FB71FB7923F00F03DBB201211846FFF7FC
:100CF000A5FFFB791B01DBB201211846FFF79EFF20
:100D0000282000F025F800BF0837BD4680BD00BF91
:100D100080B485B000AF78600023FB600DE0002355
:100D2000BB6002E0BB680133BB60BB6840F60452A5
:100D30009342F7DDFB680133FB60FA687B689A42F7
:100D4000EDDB00BF1437BD465DF8047B704700BF84
:100D500080B485B000AF78600023FB600BE0002317
:100D6000BB6002E0BB680133BB60BB68022BF9DDEE
:100D7000FB680133FB60FA687B689A42EFDB00BFD7
:100D80001437BD465DF8047B704700BF80B582B064
:100D900000AF134B7B60134B3B6007E03B681A1DB1
:100DA0003A607A68111D796012681A603B680E4AD1
:100DB0009342F3D30E480F494FF000028842B8BF68
:100DC00040F8042BFADB094A084B1B6843F4700314
:100DD0001360FFF74BFA00BF0837BD4680BD00BF68
:100DE0008D0E0000000000200000002088ED00E0D3
:100DF000000000200001002080B400AFFEE700BF2B
:100E000080B400AFFEE700BF80B400AFFEE700BFD4
:100E100052455345544C454E444900002D79697262
:100E20006D696C696B0000002D6F6E6C756B000056
:100E30002D6265736C696B002D6269726C696B0061
:100E40002D796172696D6C696B0000002D636579A5
:100E500072656B6C696B00002D6D6574656C696BF8
:100E6000000000002D6B757275736C756B000000CF
:100E700030313233343536373839000020202020E5
:0D0E800020202020202020202020202000E5
:040E9000F8B500BFF2
:040E9400F8B500BFEE
:00000001FF
